{
  "contractName": "Amm",
  "abi": [
    {
      "inputs": [
        {
          "internalType": "uint256",
          "name": "_token1Amt",
          "type": "uint256"
        },
        {
          "internalType": "uint256",
          "name": "_token2Amt",
          "type": "uint256"
        }
      ],
      "stateMutability": "nonpayable",
      "type": "constructor"
    },
    {
      "inputs": [],
      "name": "constantProduct",
      "outputs": [
        {
          "internalType": "uint256",
          "name": "",
          "type": "uint256"
        }
      ],
      "stateMutability": "view",
      "type": "function"
    },
    {
      "inputs": [],
      "name": "token1Amt",
      "outputs": [
        {
          "internalType": "uint256",
          "name": "",
          "type": "uint256"
        }
      ],
      "stateMutability": "view",
      "type": "function"
    },
    {
      "inputs": [],
      "name": "token2Amt",
      "outputs": [
        {
          "internalType": "uint256",
          "name": "",
          "type": "uint256"
        }
      ],
      "stateMutability": "view",
      "type": "function"
    },
    {
      "inputs": [
        {
          "internalType": "uint256",
          "name": "t1InputAmt",
          "type": "uint256"
        }
      ],
      "name": "quoteT1_to_T2",
      "outputs": [
        {
          "internalType": "uint256",
          "name": "",
          "type": "uint256"
        }
      ],
      "stateMutability": "view",
      "type": "function"
    },
    {
      "inputs": [
        {
          "internalType": "uint256",
          "name": "t2InputAmt",
          "type": "uint256"
        }
      ],
      "name": "quoteT2_to_T1",
      "outputs": [
        {
          "internalType": "uint256",
          "name": "",
          "type": "uint256"
        }
      ],
      "stateMutability": "view",
      "type": "function"
    }
  ],
  "bytecode": "0x608060405234801561001057600080fd5b5060405161052038038061052083398181016040528101906100329190610072565b816000819055508060018190555060015460005461005091906100ae565b6002819055505050610158565b60008151905061006c81610141565b92915050565b6000806040838503121561008557600080fd5b60006100938582860161005d565b92505060206100a48582860161005d565b9150509250929050565b60006100b982610108565b91506100c483610108565b9250817fffffffffffffffffffffffffffffffffffffffffffffffffffffffffffffffff04831182151516156100fd576100fc610112565b5b828202905092915050565b6000819050919050565b7f4e487b7100000000000000000000000000000000000000000000000000000000600052601160045260246000fd5b61014a81610108565b811461015557600080fd5b50565b6103b9806101676000396000f3fe608060405234801561001057600080fd5b50600436106100575760003560e01c806360641e591461005c57806361f7806e1461007a578063712b6542146100aa578063c4e5edcd146100da578063d70c6703146100f8575b600080fd5b610064610116565b604051610071919061022e565b60405180910390f35b610094600480360381019061008f91906101f6565b61011c565b6040516100a1919061022e565b60405180910390f35b6100c460048036038101906100bf91906101f6565b61014d565b6040516100d1919061022e565b60405180910390f35b6100e2610193565b6040516100ef919061022e565b60405180910390f35b610100610199565b60405161010d919061022e565b60405180910390f35b60025481565b60008160005461012c9190610249565b600254610139919061029f565b60015461014691906102d0565b9050919050565b600061018c61017b61016a8460015461019f90919063ffffffff16565b6002546101b590919063ffffffff16565b6001546101cb90919063ffffffff16565b9050919050565b60015481565b60005481565b600081836101ad9190610249565b905092915050565b600081836101c3919061029f565b905092915050565b600081836101d991906102d0565b905092915050565b6000813590506101f08161036c565b92915050565b60006020828403121561020857600080fd5b6000610216848285016101e1565b91505092915050565b61022881610304565b82525050565b6000602082019050610243600083018461021f565b92915050565b600061025482610304565b915061025f83610304565b9250827fffffffffffffffffffffffffffffffffffffffffffffffffffffffffffffffff038211156102945761029361030e565b5b828201905092915050565b60006102aa82610304565b91506102b583610304565b9250826102c5576102c461033d565b5b828204905092915050565b60006102db82610304565b91506102e683610304565b9250828210156102f9576102f861030e565b5b828203905092915050565b6000819050919050565b7f4e487b7100000000000000000000000000000000000000000000000000000000600052601160045260246000fd5b7f4e487b7100000000000000000000000000000000000000000000000000000000600052601260045260246000fd5b61037581610304565b811461038057600080fd5b5056fea264697066735822122043792d1ef05b6225424bf6daf8bf564b5845c00cfc3491146b54f4071cd511f664736f6c63430008000033",
  "immutableReferences": {},
  "source": "pragma solidity ^0.8.0;\n\nimport \"@openzeppelin/contracts/utils/math/SafeMath.sol\";\n\ncontract Amm {\n\tusing SafeMath for uint256;\n\n\t// The number of token1s\n\tuint256 public token1Amt;\n\t// The number of token2s\n\tuint256 public token2Amt;\n\t// The constant product to be maintained\n\tuint256 public constantProduct;\n\n\tconstructor(uint256 _token1Amt, uint256 _token2Amt) {\n\t\ttoken1Amt = _token1Amt;\n\t\ttoken2Amt = _token2Amt;\n\t\tconstantProduct = token1Amt * token2Amt;\n\t}\n\n\tfunction quoteT1_to_T2(uint256 t1InputAmt) public view returns(uint256) {\n\t\t/*\n\t\tuint256 newT1Amt = token1Amt.add(t1InputAmt);\n\t\tuint256 dividedNewT1Amt = constantProduct.div(newT1Amt);\n\t\tuint256 returnValue = dividedNewT1Amt.sub(token1Amt);\n\t\treturn returnValue;\n\n\t\t//return token1Amt.sub(constantProduct.div(token1Amt.add(t1InputAmt)));\n\t\t*/\n      \t\treturn token2Amt - (constantProduct / (token1Amt + t1InputAmt));\t       \n\t}\n\n\tfunction quoteT2_to_T1(uint256 t2InputAmt) public view returns(uint256) {\n\t\treturn token2Amt.sub(constantProduct.div(token2Amt.add(t2InputAmt)));\n\t}\n}\n",
  "sourcePath": "/home/kalzak/programming/scdev/amm/contracts/Amm.sol",
  "compiler": {
    "name": "solc",
    "version": "0.8.0+commit.c7dfd78e.Emscripten.clang"
  },
  "schemaVersion": "3.4.2",
  "updatedAt": "2021-09-18T14:08:28.131Z",
  "devdoc": {
    "kind": "dev",
    "methods": {},
    "version": 1
  },
  "userdoc": {
    "kind": "user",
    "methods": {},
    "version": 1
  }
}