{
  "contractName": "Amm",
  "abi": [
    {
      "inputs": [
        {
          "internalType": "uint256",
          "name": "_token1Amt",
          "type": "uint256"
        },
        {
          "internalType": "uint256",
          "name": "_token2Amt",
          "type": "uint256"
        }
      ],
      "stateMutability": "nonpayable",
      "type": "constructor"
    },
    {
      "inputs": [],
      "name": "constantProduct",
      "outputs": [
        {
          "internalType": "uint256",
          "name": "",
          "type": "uint256"
        }
      ],
      "stateMutability": "view",
      "type": "function",
      "constant": true
    },
    {
      "inputs": [],
      "name": "token1Amt",
      "outputs": [
        {
          "internalType": "uint256",
          "name": "",
          "type": "uint256"
        }
      ],
      "stateMutability": "view",
      "type": "function",
      "constant": true
    },
    {
      "inputs": [],
      "name": "token2Amt",
      "outputs": [
        {
          "internalType": "uint256",
          "name": "",
          "type": "uint256"
        }
      ],
      "stateMutability": "view",
      "type": "function",
      "constant": true
    },
    {
      "inputs": [
        {
          "internalType": "uint256",
          "name": "t1InputAmt",
          "type": "uint256"
        }
      ],
      "name": "quoteT1_to_T2",
      "outputs": [
        {
          "internalType": "uint256",
          "name": "",
          "type": "uint256"
        }
      ],
      "stateMutability": "view",
      "type": "function",
      "constant": true
    },
    {
      "inputs": [
        {
          "internalType": "uint256",
          "name": "t2InputAmt",
          "type": "uint256"
        }
      ],
      "name": "quoteT2_to_T1",
      "outputs": [
        {
          "internalType": "uint256",
          "name": "",
          "type": "uint256"
        }
      ],
      "stateMutability": "view",
      "type": "function",
      "constant": true
    }
  ],
  "bytecode": "0x608060405234801561001057600080fd5b5060405161054638038061054683398181016040528101906100329190610072565b816000819055508060018190555060015460005461005091906100ae565b6002819055505050610158565b60008151905061006c81610141565b92915050565b6000806040838503121561008557600080fd5b60006100938582860161005d565b92505060206100a48582860161005d565b9150509250929050565b60006100b982610108565b91506100c483610108565b9250817fffffffffffffffffffffffffffffffffffffffffffffffffffffffffffffffff04831182151516156100fd576100fc610112565b5b828202905092915050565b6000819050919050565b7f4e487b7100000000000000000000000000000000000000000000000000000000600052601160045260246000fd5b61014a81610108565b811461015557600080fd5b50565b6103df806101676000396000f3fe608060405234801561001057600080fd5b50600436106100575760003560e01c806360641e591461005c57806361f7806e1461007a578063712b6542146100aa578063c4e5edcd146100da578063d70c6703146100f8575b600080fd5b610064610116565b6040516100719190610254565b60405180910390f35b610094600480360381019061008f919061021c565b61011c565b6040516100a19190610254565b60405180910390f35b6100c460048036038101906100bf919061021c565b610173565b6040516100d19190610254565b60405180910390f35b6100e26101b9565b6040516100ef9190610254565b60405180910390f35b6101006101bf565b60405161010d9190610254565b60405180910390f35b60025481565b600080610134836000546101c590919063ffffffff16565b9050600061014d826002546101db90919063ffffffff16565b90506000610166600054836101f190919063ffffffff16565b9050809350505050919050565b60006101b26101a1610190846001546101c590919063ffffffff16565b6002546101db90919063ffffffff16565b6001546101f190919063ffffffff16565b9050919050565b60015481565b60005481565b600081836101d3919061026f565b905092915050565b600081836101e991906102c5565b905092915050565b600081836101ff91906102f6565b905092915050565b60008135905061021681610392565b92915050565b60006020828403121561022e57600080fd5b600061023c84828501610207565b91505092915050565b61024e8161032a565b82525050565b60006020820190506102696000830184610245565b92915050565b600061027a8261032a565b91506102858361032a565b9250827fffffffffffffffffffffffffffffffffffffffffffffffffffffffffffffffff038211156102ba576102b9610334565b5b828201905092915050565b60006102d08261032a565b91506102db8361032a565b9250826102eb576102ea610363565b5b828204905092915050565b60006103018261032a565b915061030c8361032a565b92508282101561031f5761031e610334565b5b828203905092915050565b6000819050919050565b7f4e487b7100000000000000000000000000000000000000000000000000000000600052601160045260246000fd5b7f4e487b7100000000000000000000000000000000000000000000000000000000600052601260045260246000fd5b61039b8161032a565b81146103a657600080fd5b5056fea2646970667358221220a923a4237d6ffb3cb4efb02aea383df759c2331085f38aec536eab434d724d1464736f6c63430008000033",
  "immutableReferences": {},
  "source": "pragma solidity ^0.8.0;\n\nimport \"@openzeppelin/contracts/utils/math/SafeMath.sol\";\n\ncontract Amm {\n\tusing SafeMath for uint256;\n\n\t// The number of token1s\n\tuint256 public token1Amt;\n\t// The number of token2s\n\tuint256 public token2Amt;\n\t// The constant product to be maintained\n\tuint256 public constantProduct;\n\n\tconstructor(uint256 _token1Amt, uint256 _token2Amt) {\n\t\ttoken1Amt = _token1Amt;\n\t\ttoken2Amt = _token2Amt;\n\t\tconstantProduct = token1Amt * token2Amt;\n\t}\n\n\tfunction quoteT1_to_T2(uint256 t1InputAmt) public view returns(uint256) {\n\t\tuint256 newT1Amt = token1Amt.add(t1InputAmt);\n\t\tuint256 dividedNewT1Amt = constantProduct.div(newT1Amt);\n\t\tuint256 returnValue = dividedNewT1Amt.sub(token1Amt);\n\t\treturn returnValue;\n\n\t\t//return token1Amt.sub(constantProduct.div(token1Amt.add(t1InputAmt)));\n\t}\n\n\tfunction quoteT2_to_T1(uint256 t2InputAmt) public view returns(uint256) {\n\t\treturn token2Amt.sub(constantProduct.div(token2Amt.add(t2InputAmt)));\n\t}\n}\n",
  "sourcePath": "/home/kalzak/programming/scdev/amm/contracts/Amm.sol",
  "compiler": {
    "name": "solc",
    "version": "0.8.0+commit.c7dfd78e.Emscripten.clang"
  },
  "schemaVersion": "3.4.2",
  "updatedAt": "2021-09-16T09:45:38.982Z",
  "networkType": "ethereum",
  "devdoc": {
    "kind": "dev",
    "methods": {},
    "version": 1
  },
  "userdoc": {
    "kind": "user",
    "methods": {},
    "version": 1
  }
}